:020000040800F2
:1000000008C8002069010008691100087D0F000878
:1000100039110008DD020008C71C000800000000BC
:10002000000000000000000000000000F5150008BE
:10003000E1020008000000007D120008A11700087E
:100040008301000883010008830100088301000880
:100050008301000883010008830100088301000870
:100060008301000883010008830100088301000860
:100070008301000883010008830100088301000850
:100080008301000883010008830100088301000840
:100090008301000883010008830100088301000830
:1000A0008301000883010008830100088301000820
:1000B00095180008C1180008830100088301000892
:1000C0008301000883010008830100088301000800
:1000D0008301000883010008D11A00088301000889
:1000E000830100088301000883010008000000006C
:1000F0000000000000000000000000000000000000
:1001000000000000000000008301000883010008D7
:1001100083010008830100088301000883010008AF
:10012000830100088301000883010008830100089F
:1001300083010008C504000883010008830100084A
:10014000830100088301000883010008830100087F
:10015000DFF80CD000F082F8004800473574000842
:1001600008C800207047000006488047064800473E
:10017000FEE7FEE7FEE7FEE7FEE7FEE7FEE7FEE757
:10018000FEE7FEE7A91700085101000840EA010355
:100190009B0703D009E008C9121F08C0042AFAD23D
:1001A00003E011F8013B00F8013B521EF9D2704701
:1001B000D2B201E000F8012B491EFBD270470022A9
:1001C000F6E710B504460846114602462046FFF7FA
:1001D000EFFF204610BD0146002000E0401C0A5CF5
:1001E000002AFBD1704730B504460020034600E0EA
:1001F0005B1C934203D2E05CCD5C401BF8D030BD69
:10020000034611F8012B00F8012B002AF9D11846FA
:10021000704730B505460020034600E05B1C934262
:1002200005D2EC5CC85C201A01D1002CF6D130BD9F
:1002300030B50B46014600202022012409E021FAB6
:1002400002F59D4205D303FA02F5491B04FA02F5B3
:100250002844151EA2F10102F1DC30BD064C074D09
:1002600006E0E06840F0010394E807009847103486
:10027000AC42F6D3FFF770FF94D40008B4D4000862
:1002800070B501EB020410F8015B15F0070301D112
:1002900010F8013B2A1106D110F8012B03E010F8E9
:1002A000016B01F8016B5B1EF9D12B0705D400230C
:1002B000521E0FD401F8013BFAE710F8013B02F19E
:1002C0000202A1EB030303E013F8015B01F8015BF9
:1002D000521EF9D5A142D6D3002070BD00BFFEE763
:1002E00070470000014948617047000000900240DB
:1002F00029B1064AD2690243044BDA6104E0034A99
:10030000D2698243014BDA617047000000900240DD
:1003100030B10749896941F00201054A916105E060
:100320000349896921F00201014A91617047000087
:100330000090024030B50C4613460021104D286055
:1003400000BF18E000EB01124FF00045156044F2C9
:10035000F0555560C1EB411505EB811504EB051512
:1003600095605D1E8D4204D900EB01151035D560F6
:1003700000E0D060491C9942E4D3024DE86030BDF2
:10038000BC0400200090024021B1426822F00042EB
:10039000426003E0426842F0004242607047000061
:1003A00030B10749896941F40051054A916105E07E
:1003B0000349896921F40051014A916170470000A5
:1003C0000090024030B50C46134600210F4D2860C6
:1003D00000BF15E000EB01124FF480151560C1EB72
:1003E000411505EB811504EB051595605D1E8D42E9
:1003F00004D900EB01151035D56000E0D060491C30
:100400009942E7D3024D286130BD0000B8040020B6
:100410000090024010B50121880300F041FF002147
:100420004FF4804000F03CFF10BD0021014600E089
:10043000491E0029FCD170470348806940F48010B0
:10044000014988617047000000900240014800683F
:1004500080687047B804002001460868C0F30D406A
:100460007047000000B500220F480068006810F0D7
:10047000004F16D10C480068006810F4004F10D1EE
:1004800009480068006810F4807F0AD006480068B8
:10049000006810F4007F04D003480068FFF7DCFF19
:1004A0000246104600BD0000BC04002000200449A4
:1004B000096811F0010F01D0012000E00020704711
:1004C0000090024010B501E000F0E6FFFFF7CAFF20
:1004D0000028F9D14020FFF705FF4FF48030FFF7E7
:1004E00001FF10BD2DE9F04786B0044688464FF065
:1004F00000090025AA46854F00268548056925F094
:100500001C0501A800F0FCFE029F8248874205D32B
:100510008148874202D245F0080509E07E488742BB
:1005200005D37A48874202D245F00C0500E000BFAF
:10053000774805614FF400420021404600F088FAF8
:1005400018B9002006B0BDE8F0877448FFF76DFFCA
:100550002068C0B300BF761C0121404600F026F998
:1005600010F0040F02D16E488642F4D36C488642E4
:1005700001D10020E6E700264FF4805200214046DA
:1005800000F066FA08B90020DCE700BF761C012104
:10059000404600F00BF910F0200F02D1604886426F
:1005A000F4D35F48864201D10020CBE7002610211A
:1005B000404600F0FBF8814619F0040F04D04FF4D8
:1005C0000060206202E00BE00020206219F0020FC0
:1005D00002D00020606116E04FF48040606112E0BC
:1005E000206AC0F3CF006169C1F34F0140EA010204
:1005F0000021404600F02CFA08B90020A2E76FF075
:100600007F40FFF712FF4248056846480540D4E99D
:1006100001010843E168084321690843616908430F
:10062000A1690843E1690843216A0843616A0843F4
:10063000A16A0843E16A0843216B0843616B0843E0
:10064000054333480560D4E90E010843216C084393
:10065000616C0843A16C0843E16C0843216D0843B9
:10066000616D08432A494860A06D8860E06DC860EC
:10067000084685694FF641700540D4E9181040EAF4
:100680000140A16E0843E16E0843216F0843616F8A
:10069000084305431E488561D4E91E0108431C49EF
:1006A000C8612148856921480540D4E920010843F3
:1006B000D4F888100843D4F88C100843D4F890106C
:1006C0000843D4F894100843D4F898100843D4F899
:1006D0009C100843D4F8A0100843054312488561D4
:1006E000D4E929010843D4F8AC100843D4F8B01079
:1006F0000843D4F8B41040EA8100D4F8B810084395
:1007000040F400000849086001201BE700879303BC
:1007100000800240002D3101C00E1602FFFF0F00C5
:10072000FFFF04000F8120FF00900240233FDEF80E
:1007300010B50B794C7943EA0422094B03441A643F
:10074000CB781B068C7843EA04434C7843EA0423B5
:100750000C7843EA0402024B03445A6410BD0000C3
:100760000080024030B10749096841F00401054AA0
:10077000116005E00349096821F00401014A116094
:10078000704700000080024030B10749096841F01D
:100790000801054A116005E00349096821F00801D4
:1007A000014A1160704700000080024010B5034606
:1007B0000C46002100221348016901F01C014FF48E
:1007C000784000EAC32001434FF4F86000EA841047
:1007D000014321F0020141F001010A48016100BF1B
:1007E000521C0848016911F0010F02D006488242EC
:1007F000F6D30548824201D1002010BD014840696E
:1008000080B2FAE700800240FFFF040010B50548FF
:10081000006830B100F068FC0248002101604160CE
:10082000816010BD8CC000201EB500210022009206
:1008300001920292214A1268126812F0004F10D001
:10084000002200921E4A526912F0800F04D08022CA
:100850001B4B5A6100229A609DE81C0080E81C0036
:100860001EBD164A1268126812F4004F16D1134AC0
:100870001268126812F4807F10D0104A1268126851
:1008800012F4007F0AD00D4A12681268C2F30D42BA
:10089000111F0A4A12689268019200E0002100913B
:1008A000064A12680292054A1268D268034B1A601F
:1008B0009DE81C0080E81C0000BFD1E7BC040020BC
:1008C000009002400348006840F0010001490860C0
:1008D000704700000090024000B50120FFF754FF70
:1008E000FFF7AAFD0120FFF73DFF0120FFF758FDAC
:1008F0000120FFF70DFD00BD002101604160816016
:10090000C160016141618161C161016241628162D5
:10091000C162016341638163C1634021016420219D
:10092000416400218164C164016541658165C165DF
:1009300001668021416600218166C16601674167C9
:100940008167C1674FF08061C0F880104910C0F81E
:1009500084104910C0F88810C910C0F88C1000210C
:10096000C0F89010C0F89410C0F89810C0F89C100F
:10097000C0F8A0104FF00071C0F8A4100021C0F81A
:10098000A8104FF40031C0F8AC104912C0F8B010F4
:100990000021C0F8B410C0F8B810704770B5054613
:1009A00024480068006810F0004F1DD000F082F865
:1009B000214800F0DFFE022220492148FFF702FD16
:1009C000042220492048FFF7B5FC002406E01E4918
:1009D00001EB04100121FFF7D7FC641C042CF6DBAB
:1009E000FFF77AFF002070BDC5F30C0011490968BC
:1009F000486010480068006840F040500D490968A0
:100A000008600C480068006840F000400949096827
:100A100008600E48406910F0040F04D004200B4910
:100A200048610020486003480068C06801490860C8
:100A30000120D8E7B80400201A000020D0AE002022
:100A4000F096002010970020B09600200090024001
:100A500030B503460C4615460021002212480169B4
:100A600001F01C014FF4784000EAC32001434FF429
:100A7000F86000EA8410014341F0020141F00101F5
:100A800009484561016100BF521C0748016911F026
:100A9000010F02D005488242F6D30448824201D1B8
:100AA000002030BD0120FCE700800240FFFF040071
:100AB00072B6704700B5AFB0002000F0C9F806204C
:100AC00000F0E4FCFFF7A6FCFFF7FCFE00BFFFF719
:100AD000EDFC0128FBD06846FFF70EFF01200090D7
:100AE000002007904FF400700A9000200B900E90A9
:100AF000119013901490159020904FF00070219059
:100B00000011239000202590269004202890C005F5
:100B1000299040122A9080012B9040122C90400086
:100B20002E9001216846FFF7DDFC01210248FFF706
:100B3000DFFB2FB000BD00004000010062B670472F
:100B40000346704708B50420ADF8000003208DF877
:100B5000020018208DF803006946394800F07EF83D
:100B60000620ADF8000003208DF8020018208DF853
:100B700003006946334800F071F843F62010ADF8E1
:100B8000000003208DF8020018208DF8030069464C
:100B90002D4800F063F801214FF0201000F0E8F834
:100BA0000B20ADF8000003208DF8020004208DF822
:100BB00003006946224800F051F84FF48060ADF818
:100BC000000003208DF8020004208DF80300694620
:100BD0001D4800F043F80820ADF8000003208DF810
:100BE000020004208DF803006946164800F036F82C
:100BF0004FF4F850ADF8000003208DF802000420F7
:100C00008DF803006946114800F028F81020ADF86F
:100C1000000000208DF8030069460A4800F01EF825
:100C20004FF48070ADF8000003208DF8020018200A
:100C30008DF803006946024800F010F808BD000076
:100C40000008014000100140000C01400014014068
:100C50000149086070470000DC0020422DE9F041A6
:100C6000024600250026002000230024002791F8DA
:100C700003C00CF00F0591F803C01CF0100F03D057
:100C800091F802C04CEA0505B1F800C01CF0FF0F56
:100C900031D0146800202BE04FF0010C0CFA00F367
:100CA000B1F800C00CEA03069E4220D183004FF049
:100CB0000F0C0CFA03F7BC4305FA03FC4CEA0404DE
:100CC00091F803C0BCF1280F06D14FF0010C0CFACB
:100CD00000FCC2F814C00AE091F803C0BCF1480F50
:100CE00005D14FF0010C0CFA00FCC2F810C0401CFA
:100CF0000828D1D31460B1F800C0BCF1FF0F34DD77
:100D0000546800202EE000F1080C4FF0010808FAAA
:100D10000CF3B1F800C00CEA03069E4221D1830017
:100D20004FF00F0C0CFA03F7BC4305FA03FC4CEA36
:100D3000040491F803C0BCF1280F05D100F1080CA0
:100D400008FA0CF8C2F8148091F803C0BCF1480FFF
:100D500007D100F1080C4FF0010808FA0CF8C2F8AE
:100D60001080401C0828CED35460BDE8F0810000FC
:100D7000F0B50A46002300240021002500F00046BB
:100D8000B6F1004F02D11D4EF16901E01B4E7168B2
:100D9000C0F3034583B200F44016B6F5401F08D1F6
:100DA00021F07061154E766826F07066134F7E60F4
:100DB00012E000F48016B6F5801F06D1032606FA6D
:100DC00005F4A14341F0706106E0460D360103FAD7
:100DD00006F6B14341F0706122B1460D360103FAC7
:100DE00006F6314300F00046B6F1004F02D1034E43
:100DF000F16101E0014E7160F0BD000000000140B2
:100E000041617047016170472DE9F041002442487B
:100E1000006805884048006846883F4800680779B0
:100E20003E4820443EA10A68026049684160083497
:100E30000D203A4908550A21601C0446374A1154CE
:100E400011460819122239A1FFF7A0F912343349CB
:100E500008192A463AA100F039FF2044C4B20D20F7
:100E60002E4908550A21601CC0B204462B4A115471
:100E700011460819122233A1FFF788F904F1120074
:100E8000C4B22649081932462DA100F01FFF2044A4
:100E9000C4B20D20214908550A21601CC0B2044685
:100EA0001E4A11541146081914222BA1FFF76EF99E
:100EB00004F11400C4B2AA1B1849081920A100F0BB
:100EC00005FF2044C4B20D20144908550A21601CB6
:100ED000C0B20446114A11541046011924A00268F8
:100EE0000A6042684A600089088104F10A00C4B2BD
:100EF0000A4908193A4612A100F0E8FE2044C4B29B
:100F00000D20064908550A21601CC0B20446034A58
:100F100011541046BDE8F081D0040020A22B00201F
:100F2000C4DAB4E6D0C5CFA200000000D7DCC4DA32
:100F3000B4E6CAFDA3A8D7D6BDDAA3A9A3BA000018
:100F400025640000D2D1D3C3C4DAB4E6A3A8D7D6AF
:100F5000BDDAA3A9A3BA0000CAA3D3E0C4DAB4E6F9
:100F6000CAFDA3A8D7D6BDDAA3A9A3BA0000000082
:100F7000CAB9D3C3B1EACABEA3BA0000FFF7F2F8F8
:100F800000BFFEE71FB50121084600F099F940F6C1
:100F90000F640121880700F0A7FC4FF4A06000F067
:100FA00045F91C208DF80C0003208DF80D00002061
:100FB0008DF80E0001208DF80F0003A800F0F4F862
:100FC0000121880700F09FFC00220121880700F022
:100FD000BAFC00214FF0804000F098FCADF80040D2
:100FE0000020ADF80600ADF80200C820ADF80400FE
:100FF0006946C00600F0B6FC0121880700F083FCBA
:1010000001221146900700F09EFC00214FF0804025
:1010100000F0A5FC0121880700F078FC1FBD00004E
:1010200000B587B006F08AFA06F084FC002006902E
:10103000059004900C4800F09DFB0C4B0C4A0021DD
:101040008DE80E0004AB05AA06A90A4806F038FD93
:10105000084806F083FD074801F0AEFF054806F09A
:10106000E1FD07B000BD00001A000020A543000804
:1010700091440008BC05002010B50446FFF7C6FBEC
:1010800015480068201AFA2805D3134804600AF0AE
:101090002BFE00F0EDFC11480068201A41F2883167
:1010A000884203D30D48046003F0D4F80C4800686C
:1010B000201AB0F5FA7F03D30948046001F040FA22
:1010C00008480068201A4EF66021884203D305487C
:1010D000046001F09FF810BD000000200400002013
:1010E000080000200C00002010B5024803F0FCF9B5
:1010F00010BD0000BC050020F8B507460C4615469B
:10110000FD2D00DDF8BD68460BF0F2FD002607E07E
:101110002078009908700098401C0090641C761C90
:10112000AE42F5DB68460BF0E3FD2A4638460099EF
:1011300002F0D0FB00BFE5E700BFFEE770B5054653
:101140000748006850B10648046800200449086058
:10115000224604490620FFF7CFFF00BF70BD000004
:1011600034000020FE050020704708B500214FF034
:10117000006000F079F800214FF0006000F074F892
:101180004FF4A06000F052F83D208DF800000220DE
:101190008DF8010000208DF8020001208DF8030079
:1011A000684600F001F808BD70B5002100230F2249
:1011B000C4784CB31A4C246804F4E064C4F5E064C9
:1011C0004FEA1421C1F1040322FA01F2447804FA2F
:1011D00003F1847804EA020444EA01014FEA0111B0
:1011E000104C0678A155047804F01F054FF0010457
:1011F00004FA05F405784FEA65154FF0E02606EB92
:101200008505C5F8004109E0047804F01F050124B4
:10121000AC40054D0678761145F8264070BD0000BB
:101220000CED00E000E400E080E100E00249014351
:10123000024A1160704700000000FA050CED00E062
:1012400010B5002807DA0A07120E054B00F00F044C
:10125000241F1A5503E00A07120E024B1A5410BD40
:1012600018ED00E000E400E0024A0A400243024BAD
:101270001A60704780FFFF1F08ED00E07047000014
:1012800029B1064A52690243044B5A6104E0034AF9
:1012900052698243014B5A617047000000100240BE
:1012A00029B1064A926A0243044B9A6204E0034A57
:1012B000926A8243014B9A6270470000001002401C
:1012C00029B1064AD2690243044BDA6104E0034AB9
:1012D000D2698243014BDA6170470000001002407E
:1012E00029B1064A92690243044B9A6104E0034A19
:1012F00092698243014B9A617047000000100240DE
:101300002DE9F041002100220025002300260024C1
:1013100000278C46DFF86081D8F8048008F00C01C3
:1013200021B1042907D0082959D109E0DFF84C81FF
:10133000C0F8008058E0DFF84481C0F8008053E036
:10134000DFF83481D8F8048008F47012DFF82881BF
:10135000D8F8048008F48035920C0D2A01D0921C34
:1013600000E0062235B9DFF8188102FB08F8C0F862
:10137000008033E0DFF80081D8F82C8008F4803654
:10138000DFF8F480D8F82C8008F00F0808F1010489
:1013900046B9DFF8E880B8FBF4F808FB02F8C0F8BB
:1013A00000801BE0DFF8D080D8F82C80C8F3031849
:1013B00008F10107DFF8C080D8F82C80C8F30328B3
:1013C00008F1020CDFF8B480B8FBF7F808FB0CF862
:1013D000B8FBF4F808FB02F8C0F8008004E0DFF87E
:1013E0009C80C0F8008000BF00BFDFF88C80D8F878
:1013F000048008F0F0010909DFF8888018F801304E
:10140000D0F8008028FA03F8C0F80480DFF868807C
:10141000D8F8048008F4E061090ADFF8688018F859
:101420000130D0F8048028FA03F8C0F80880DFF80B
:101430004880D8F8048008F46051C90ADFF8448075
:1014400018F80130D0F8048028FA03F8C0F80C80AE
:10145000DFF82480D8F8048008F44041890BDFF8D5
:10146000288018F80130D0F80C80B8FBF3F8C0F8E9
:101470001080BDE8F08100000010024000127A00E8
:1014800000093D00A4040020B40400200149C871F3
:1014900070470000001002400EB51148FFF7C4F974
:1014A0000F4A07CA8DE807000D48006840F2DC517A
:1014B000884205D80A48026841680A48FEF766FE75
:1014C0004FF000400649896808600748406910F0FD
:1014D000800F04D0802004494861002088600EBD40
:1014E0008CC00020B0BA00200090024021B10288D8
:1014F00042F04002028004E002884FF6BF731A40B7
:101500000280704700B587B001210520FFF7E8FE93
:1015100001210803FFF7E4FEE020ADF818000320E6
:101520008DF81A0018208DF81B0006A91948FFF73E
:1015300095FB1020ADF8180003208DF81A0010203C
:101540008DF81B0006A91348FFF788FB0020ADF8B3
:1015500004004FF48270ADF806000020ADF80800DA
:10156000ADF80A00ADF80C004FF40070ADF80E00B5
:101570000020ADF81000ADF812000720ADF81400FF
:1015800001A9054800F018F801210348FFF7AEFF54
:1015900007B000BD000801400030014002460020B5
:1015A00013890B4201D0012000E000207047014662
:1015B000888970478181704710B50022028802F443
:1015C00041520B884C8823438C882343CC88234387
:1015D0000C8923434C8923438C892343CC8923439F
:1015E0001A430280838B4FF2FF74234083830B8A5C
:1015F000038210BD7047000070B50546164800789C
:1016000010BB16480068F8B101231448006882B284
:101610001349144800680AF0A5FB044600200F494E
:10162000086024B90F48006808F074FE12E00E4804
:101630000078401C0C49087008460078322809DB05
:101640000020087000BF05E00448006810B10020C9
:101650000249086070BD0000200000204400002006
:10166000EA0B0020540400204800002010B500F0D0
:1016700001F810BD002100203A4A126842F480327D
:10168000384B1A6000BF374A126802F40030491C18
:1016900010B9B1F5A06FF6D1324A126812F4003FCA
:1016A00001D0012000E0002001285AD12E4A126802
:1016B00042F010022C4B1A601A46126822F0030204
:1016C0001A601A46126842F002021A60254A5268ED
:1016D000244B5A601A4652685A601A46526842F4BD
:1016E00080625A601A46D26A204B1A401D4BDA6259
:1016F0001A46D26A1E4B1A431A4BDA621A4612680D
:1017000042F080621A6000BF164A126812F0006F41
:10171000FAD0144A526822F47C12124B5A601A46CC
:10172000526842F4E8125A601A46126842F0807217
:101730001A6000BF0B4A126812F0007FFAD0094A03
:10174000526822F00302074B5A601A46526842F070
:1017500002025A6000BF034A526802F00C02082AD3
:10176000F9D17047001002400020024000F0FEFF57
:101770004406010010B504462078084908706078D6
:101780004870A0788870E078C87020790871607916
:10179000487121460020FEF7CBFF10BD60050020F8
:1017A00010B500F093F910BD10B51648006840F070
:1017B000010014490860084640681349084011496F
:1017C000486008460068114908400E49086008460C
:1017D000006820F4802008600846406820F4FE007D
:1017E00048600846006820F0A05008604FF47F0071
:1017F00088600020C862FFF739FF4FF0006004499D
:10180000086010BD001002400000FFF0FFFFF6FE70
:1018100008ED00E010B586B0FFF7C6FF00234FF4D7
:1018200016520221184601F01BFF01F005FF0121AD
:101830004FF4E030FFF724FD012140F27D20FFF757
:101840004FFDFFF792FCFFF77DF9FFF733F901A891
:10185000FFF756FD64210198B0FBF1F4B4F1807FED
:1018600000D311E024F07F40401E4FF0E02148619A
:101870000F214FF0FF30FFF7E3FC00204FF0E02195
:1018800088610720086100BF0121881EFFF7D8FC8E
:1018900006B010BD10B50121880700F043F860B113
:1018A0000121880700F02CF80121880700F02BF8AF
:1018B000024800680A300149086010BD9804002001
:1018C00010B50121074800F02DF848B10121054865
:1018D00000F016F80121034800F015F806F0B0FEFC
:1018E00010BD00000004004021B1028842F08002D7
:1018F000028004E002884FF67F731A40028070472E
:10190000CA4302827047CA430282704721B10288EB
:1019100042F00102028004E002884FF6FE731A4092
:101920000280704730B50246002000230024158A4B
:1019300005EA0103958905EA010413B10CB1012000
:1019400000E0002030BD10B51AB183890B438381BC
:1019500004E08389CC43A4B22340838110BD8184F9
:1019600070470000002202881D4B98420ED01D4B8C
:1019700098420BD0B0F1804F08D01B4B984205D055
:101980001A4B984202D01A4B984204D14FF68F73EB
:101990001A404B881A43174B984207D0164B98426F
:1019A00004D04FF6FF431A40CB881A4302808B883D
:1019B00083850B8803850A4B98420BD0094B9842CC
:1019C00008D00E4B984205D00D4B984202D00D4BDB
:1019D000984201D10B7A038601238382704700006D
:1019E000002C014000340140000400400008004089
:1019F000000C004000100040001400400040014076
:101A0000004401400048014010B504460F480068FA
:101A1000201A41F28831884217D30C4804600C48E0
:101A2000007830B10C220BA10120FFF789F807F0F4
:101A300045FB0B48007840B90120094908700C2289
:101A400008A1FFF77DF80AF0ABFE10BD2C000020C6
:101A5000200000205443505F52657472790D0A00D3
:101A6000210000205544505F52657472790D0A00C0
:101A700010B510480078D8B10F480078401C0E49C6
:101A8000087008460078552812DD00230B480288AC
:101A90000B490C4800680AF085FD0B4801680948AD
:101AA00000680AF015FC002002490870024908701D
:101AB00010BD00007C0400207D0400208C04002068
:101AC0008804002084040020800400207047000067
:101AD00010B540F225510B4800F031F8012806D12D
:101AE00040F22551074800F00FF806F0B1FD40F232
:101AF0002771044800F023F8012801D106F0B0FD59
:101B000010BD00000044004010B500220023A1F5E4
:101B100010646A3C00D100BF0A1201249440A3B2B1
:101B2000DC43048010BD21B1828942F400528281DD
:101B300004E082894DF6FF731A408281704770B5C8
:101B400002460024002300250020A1F510666A3E0D
:101B500000D100BFC1F3421501F01F03012606FAB0
:101B600003F3012D02D19689334006E0022D02D104
:101B7000168A334001E0968A33400C12012606FA99
:101B800004F41688344013B10CB1012000E00020A9
:101B900070BDF0B503460024002600250020A1F505
:101BA00010676A3F00D100BF1846C1F3421401F02C
:101BB0001F06012707FA06F5012C01D10C3004E0BD
:101BC000022C01D1103000E014301AB107682F4305
:101BD000076002E00768AF430760F0BD2DE9F047FA
:101BE00086B005460E460024A24600BFA146002747
:101BF000B08900B100BF2F462C8A4CF6FF7004401C
:101C0000F08804432C82AC894EF6F3100440B0886F
:101C100031890843718908430443AC81AC8A4FF68B
:101C2000FF400440B0890443AC8201A8FFF768FB81
:101C30001F48874202D1DDF810A001E0DDF80CA0BA
:101C4000A88910F4004F08D00AEBCA0000EB0A1074
:101C500031684900B0FBF1F807E00AEBCA0000EB7D
:101C60000A1031688900B0FBF1F86420B8FBF0F08D
:101C700004012009642101FB1089A88910F4004F98
:101C800008D0322000EBC900B0FBF1F000F00700F3
:101C9000044308E0322000EB09106421B0FBF1F0AE
:101CA00000F00F0004432C8106B0BDE8F08700006F
:101CB0000038014001468888C0F308007047C1F32E
:101CC00008028280704700BFFEE700000FB4084B97
:101CD00010B504A902AA039800F01CF8044602A952
:101CE000002000F0B9F9204610BC5DF814FB00009C
:101CF0005920000802E008C8121F08C1002AFAD1C2
:101D000070477047002001E001C1121F002AFBD17B
:101D1000704700002DE9FF4F8DB00546884600262C
:101D200066E1252879D100246D1CB54AA146A34659
:101D300001212B78203B01FA03F0104202D004432A
:101D40006D1CF6E728782A2810D06FF02F0228782B
:101D5000A0F13001092915D809EB890102EB4101F5
:101D600044F0020400EB01096D1CF0E758F8049BF5
:101D7000B9F1000103DA44F40054C1F1000944F060
:101D800002046D1C28782E2817D115F8010F44F095
:101D900004042A280ED06FF02F022878A0F1300119
:101DA00009290AD80BEB8B0102EB410100EB010B77
:101DB0006D1CF2E758F804BB6D1C28786C280FD016
:101DC00006DC4C2817D068280DD06A2814D104E00E
:101DD000742810D07A280FD10DE044F400140AE0E2
:101DE00044F4801401E044F440146978814202D143
:101DF0006D1C04F580146D1C2878692866D006DCFB
:101E0000A0B3632828D0642807D15FE005E06E28DE
:101E100008D073282BD075287AD0DDE90F129047AF
:101E2000761CE4E0C4F30250022809D003280DD048
:101E3000D8F8001004280DD00E6008F10408D6E090
:101E4000D8F80010F217C1E90062F6E7D8F80010E0
:101E50000E80F2E70E70F0E758F8041B8DF80010C2
:101E600000208DF80100EA46012004E0C4E058F8A3
:101E700004AB4FF0FF3061074FF0000701D40AE0D8
:101E80007F1C5F450DDA8742FADB1AF8071000293C
:101E9000F6D106E07F1C8742FCDB1AF80710002908
:101EA000F8D1DDE90F23A9EB07008146214600F0B8
:101EB000BCF83044C61904E0DDE90F121AF8010B32
:101EC00090477F1EF8D2214648468BE00A2758F8F3
:101ED000040BC4F30251032900D100B2042900D13C
:101EE00040B2002804DAC0F100004FF02D0102E0FA
:101EF000210505D52B218DF82C10012104E007E0E8
:101F0000E10710D02021F6E70DF1200A099113E036
:101F10000A2758F8040BC4F30251032900D180B2F8
:101F2000042900D1C0B20021EEE73946FEF780F95E
:101F300001F130020AF8012D0028F6D1ADEB0A00BC
:101F400000F120000890600702D524F4803401E0FD
:101F50004FF0010B089A00205946934501DDA1EB93
:101F60000200834600EB020109980144A9EB01003D
:101F70000A90E00306D4DDE90F2321460A9800F019
:101F800054F8064400270DF12C0906E0DDE90F1294
:101F900019F807009047761C7F1C09988742F5DBEB
:101FA000E0030CD5DDE90F2321460A9800F03DF847
:101FB000064404E0DDE90F1230209047761CBBF1A7
:101FC0000001ABF1010BF5DC05E0DDE90F121AF8B9
:101FD000010B9047761C0899481E08900029F4DCF4
:101FE0000A982146DDE90F2300F00CF806446D1C29
:101FF000287800287FF495AE11B03046BDE8F08F08
:10200000092801002DE9F0410446002517461E4627
:10201000880405D406E039462020B04705F10105C3
:10202000641EF8D52846BDE8F0812DE9F04104464C
:102030000025302790461E46C80300D42027880478
:1020400005D506E041463846B04705F10105641E56
:10205000F8D52846BDE8F0810A68531C0B60107063
:102060007047F0B504460D460020002123E0675C70
:1020700000261AE0C0F38012FB0992EA030C08D094
:1020800080F004004FEA406C4FEA1C6040F0010011
:1020900003E04FEA406C4FEA1C6006F1010C0CF0C3
:1020A000FF064FEA476C4FEA1C67082EE2DB01F19E
:1020B000010C0CF0FF01A942D9DBF0BD70B504465C
:1020C0000D4600BF14B900BF00BF70BD00BF206A3D
:1020D00058B1206A007B082807D12868216A496A1C
:1020E000884202D1204600F06FF900BFEDE77CB5D1
:1020F000064600BF16B900BF00BF7CBD00BF346AF2
:1021000000BF14B900BF00BFF7E700BF606B401C01
:102110000ED0606B1E303C21B0FBF1F5B5F5803F71
:1021200001D34FF6FF75A583A08B08B90120A083CA
:10213000A06B401C0ED0A06B1E303C21B0FBF1F513
:10214000B5F5803F01D34FF6FF75E583E08B08B905
:102150000120E083A08BE18B884204DBE08B002828
:1021600001DD0020A083A07B10B1A06A019010E0E7
:1021700094F824007F2802DCFF21019108E0C028A8
:1021800003DB6FF07F41019102E04FF6FF71019197
:1021900000BFE06A0090BDF1000001D0009838B99E
:1021A000606A019908400090009840F080700090AB
:1021B00004F12401304605F0F3FC01A9304605F096
:1021C0002BFD6946304605F0E4FC304605F02AFD5B
:1021D0000A21204600F0E8FE00BF8EE72DE9F0411D
:1021E00005462C6A0821204600F0DEFE002204F19C
:1021F0002401284601F0A8FE0746607B401C60735E
:102200004FF4FA7606F2F310314690FBF1F060835A
:10221000BDE8F08110B50F48046817E0206AA0B14E
:10222000206AC18B481E226AD083012903D120462F
:1022300000F06BFF09E0206A818B481E226A9083C0
:10224000012902D1204600F050FF2468002CE5D17E
:1022500010BD0000DC0400202DE9F04106460C46CC
:10226000174600BF2EB900BF00BF6FF00D00BDE8DC
:10227000F08100BF00BF24B900BF00BF6FF00500B0
:10228000F5E700BF00BF206908B100BF00BF00BF75
:1022900000BF606908B100BF00BF00BF00224FF45B
:1022A0009A71104605F063FD2061206910B94FF066
:1022B000FF30DCE700BF20694089B0F59A7F01D28A
:1022C00000BF00BF00BF607B20B93D480068401CD4
:1022D0003B4908603A4800682060206940686061B6
:1022E0000120616908706169487096F82A00616987
:1022F000887000206169C870206805F04DF8616938
:102300004860002061690881616948816169C8602D
:10231000082F09D0042F07D0032F08D1207B0528D0
:1023200002D0207B042802D170686169C860002057
:1023300061690861616948616169886100250EE031
:1023400096F82A00A84203DD06F12B00405D00E06C
:102350000020C1B260691C304155681C85B2102D47
:10236000EED3002505E0002160692C304155681C42
:1023700085B2402DF7D3002505E0002160696C305F
:102380004155681C85B2802DF7D30E486169C1F8AC
:10239000EC0000202083002504E06069F030455502
:1023A000681C85B2442DF8D301223521204600F067
:1023B00057F93946204600F06AF9002057E7000037
:1023C000C8040020638253632DE9F84305462C6A54
:1023D00000260C21204600F0E7FD04222146284675
:1023E000FFF73AFF0646FEB904223221204600F0EC
:1023F00037F9606A04F0E3FF80460146204600F0AA
:1024000084F9204600F0BFF9228BF03291B22069A6
:1024100005F088FF009543230B4A216960680AF0A4
:10242000DDFB204600F012F8607B401C607342F236
:10243000107707F2F3104FF4FA7190FBF1F060831C
:102440003046BDE8F883000088D3000810B5044684
:1024500000BF14B900BF00BF10BD00BF00BF20699E
:1024600008B900BF00BF00BF00BF606908B900BF66
:1024700000BF00BF206910B1206905F0B0FE002048
:102480002061606100BFE7E7F8B505462C6A0026C9
:10249000002060620621204600F086FD01222146D0
:1024A0002846FFF7D9FE064686BB02223921204680
:1024B00000F0D6F8298D204600F04EF9042237218D
:1024C000204600F0CDF80121204600F0E0F803217D
:1024D000204600F0DCF81C21204600F0D8F8062148
:1024E000204600F0D4F8204600F04DF9228BF0325F
:1024F00091B2206905F016FF009543230F4A216928
:1025000060680AF06BFB2046FFF7A0FF607B401C71
:102510006073607B062803DA617B0120884000E05D
:102520003C204FF47A71484387B207F2F310491008
:1025300090FBF1F060833046F8BD000088D30008BE
:1025400010B50F48046818E0206AA8B1206A408BD3
:10255000012805DD206A408B401E216A48830BE07C
:10256000206A408B012807D1206A408B401E216AD7
:102570004883204600F0D9FD2468002CE4D110BD2A
:10258000DC04002070B505462C6A0020A062E062E1
:102590001848C07810B11848C06820631548007901
:1025A00018B115480069606302E0206B4008606361
:1025B0001048407918B110484069A06301E0206BD1
:1025C000A063A068006960620A48807938B10A494E
:1025D000886904F0E1FEA0620120A07301E0002000
:1025E000A0730448C07920B10349C86904F0D4FE3F
:1025F000E06270BD841300205C13002070B50446B7
:10260000256A204605F0B0FA0949204605F0C8FAC7
:102610000749204605F0BDFA0549204605F0FCFAB9
:102620000C21284600F0C0FC2046FFF72DFF70BDAE
:1026300084D3000870B505462C6A0748807850B1ED
:102640000649886804F0A8FE2062A06800696062FC
:10265000284600F02FFC70BD841300205C1300207E
:1026600010B500BF038B9B1C1344442B01D900BF42
:1026700000BF00BF048B631C03834369F03319550B
:10268000048B631C03834369F0331A5510BD00BFEC
:10269000028B442A01D300BF00BF00BF038B5A1C2A
:1026A00002834269F032D15470472DE9F047074662
:1026B0000C46606A38B3606AFDF78DFD05460DB3C0
:1026C000D4F82480388BC0F1410900BF4D4501D9B1
:1026D00000BF00BF00BF4D4501D2284600E048467C
:1026E000C6B232460C213846FFF7BAFF04E018F8AC
:1026F000011B3846FFF7CBFF3000A6F10101CEB237
:10270000F5D100BF00BFBDE8F08710B500BF028B58
:10271000121D442A01D900BF00BF00BF0A0E048B5E
:10272000631C03834369F0331A55C1F30742048BDA
:10273000631C03834369F0331A55C1F30722048BEA
:10274000631C03834369F0331A55048B631C0383B2
:102750004369F033195510BD10B500BF028B921CB0
:10276000442A01D900BF00BF00BF0A0A048B631CC2
:1027700003834369F0331A55048B631C0383436955
:10278000F033195510BD00BF10B900BF00BF70472E
:1027900000BF00BF416909B900BF00BF00BF00BF53
:1027A000018B442901D300BF00BF00BFFF22038B70
:1027B000591C01834169F031CA5406E00022038BA1
:1027C000591C01834169F031CA54018B442903D358
:1027D000018B11F0030F02D0018B4429EED300BF0F
:1027E000D5E700002DE9F34F89B089460020069017
:1027F00005900A21D148FDF7E2FCB9F80A002C281F
:1028000004DA6FF001000BB0BDE8F08FD9F80410C6
:10281000099881604FF0F00BB9F80800079000BFED
:102820004C460AE06089ABEB00001FFA80FB61892F
:102830000798401A80B20790246814B160895845FF
:10284000F0DD14B96FF00100DDE75F46DDF81CA094
:10285000606808903DE10898C05D049000264FF044
:10286000FF38B81C80B203906189781C814203DD77
:10287000791C0898455C07E0206818B1206840681A
:10288000007800E00020C5B22E460498342860D0BD
:102890000BDC032824D003DC80B1012871D113E0C4
:1028A00006282AD033286CD147E035285DD0362859
:1028B0006AD03A2874D03B2863D17DE000200546D9
:1028C0000646781E87B285E000BF042D04D000BF05
:1028D00000BF6FF0050096E700BF4FF0060879E0F3
:1028E000042600BFB54204DA00BF00BF6FF0050048
:1028F00089E700BF4FF007086CE000BFE91705EB60
:1029000091718910B5EB810104D000BF00BF6FF059
:10291000050078E700BF082D01DA284600E008200E
:10292000C6B200BFB54204DA00BF00BF6FF00500B9
:1029300069E700BF4FF008084CE000BF042D04D049
:1029400000BF00BF6FF005005DE700BF4FF0030858
:1029500040E000BF012D04D000BF00BF6FF00500B4
:1029600051E700BF4FF0000834E000BF012D04D054
:1029700000BF00BF6FF0050045E700BF4FF0010842
:1029800028E025E000E00BE000BF042D04D000BFEC
:1029900000BF6FF0050036E700BF4FF0020819E0F6
:1029A00000BF042D04D000BF00BF6FF005002AE770
:1029B00000BF4FF004080DE000BF042D04D000BF9D
:1029C00000BF6FF005001EE700BF4FF0050801E0F3
:1029D000002600BF00BFA81C384487B2002E5DDD72
:1029E0000020029000BF00BFB8F1000F02DBB8F179
:1029F0000A0F01DB00BF00BF00BF504810F80800FD
:102A000078BB042E01DA304600E0042080B2019049
:102A100002A92046039B019A05F094FB042E21DDB8
:102A200000BFF11706EB91718910B6EB810104D05C
:102A300000BF00BF6FF00500E5E600BF01203F4981
:102A400001F80800029804F0A7FC3D4941F828006D
:102A5000301FC6B20398001D80B2039008F1010830
:102A6000C1E71AE0042E04D1029804F0A8FC0290F9
:102A70000BE000BF012E04D000BF00BF6FF00500C7
:102A8000C1E600BF9DF80800029001202B4901F823
:102A900008002B49029841F8280000BF6089B8421D
:102AA00016DC6089381A87B26089AAEB00001FFA29
:102AB00080FA57450BDABAF1000F08D0246800BF3E
:102AC0000CB900BF00BF00BF6068089000E008E0DC
:102AD00000BF34B10898C05DFF2802D05745FFF60B
:102AE000BAAE00BF15480078A0B1154908680021AA
:102AF000124A1170012802D10121069109E0022831
:102B000002D10121059104E0032802D101210591A0
:102B1000069100BF069830B1002006904FF06C0B74
:102B2000EC2007907CE6059830B1002005904FF02E
:102B30002C0B6C20079073E6002064E684130020C1
:102B40005C130020F8B505462C6A0421204600F0ED
:102B50002BFA032221462846FFF77EFB0646FEB9E4
:102B6000022239212046FFF77BFD298D2046FFF701
:102B7000F3FD29462046FFF798FD2046FFF703FEA8
:102B8000228BF03291B2206905F0CCFB00954323F3
:102B90000F4A216960680AF021F82046FFF756FCC9
:102BA000607B401C6073607B0A2804DA607B4FF412
:102BB0007A71484301E042F2107087B207F2F310D5
:102BC0004FF4FA7190FBF1F060833046F8BD0000DD
:102BD00088D300082DE9F84305462C6A03212046D6
:102BE00000F0E2F9032221462846FFF735FB0646AE
:102BF0004EBB022239212046FFF732FD4FF41071FF
:102C00002046FFF7A9FD042232212046FFF728FDC8
:102C1000606A04F0D4FB804601462046FFF775FD4C
:102C20002046FFF7B0FD228BF03291B2206905F00B
:102C300079FB00954323104A2169606809F0CEFFB3
:102C40002046FFF703FC607B401C6073607B0A2812
:102C500004DA607B4FF47A71484301E042F210706D
:102C600087B207F2F3104FF4FA7190FBF1F0608332
:102C70003046BDE8F883000088D300082DE9F05FF6
:102C800081461546DDF828B04F463C6AD5F804A0C9
:102C900000BFA06808B100BF00BF00BF68892C2832
:102CA00000DA64E09AF80000022800D05FE0002615
:102CB0000AE007F12B00815D0AF11C00805D814272
:102CC00000D054E0701CC6B297F82A00B042F0DC85
:102CD000DAF8040004F073FB2168884200D046E073
:102CE00029462046FFF77EFD00B140E023484078AA
:102CF00000B93CE02248406800F0FF08B8F1050F39
:102D000016D1207B012806D13846FFF73BFC384618
:102D1000FFF764FA2AE0207B032805D0207B0428F3
:102D200002D0207B052821D13846FFF7E0F91DE0CD
:102D3000B8F1060F0FD1207B032808D0207B012893
:102D400005D0207B042802D0207B052803D13846FB
:102D5000FFF754FC0AE0B8F1020F07D1207B0628E8
:102D600004D1002060833846FFF764FC00BF0020D8
:102D7000A060284605F033FABDE8F09F84130020D8
:102D80005C130020F8B505462C6A0021204600F0AF
:102D90000BF9002020626062A062E062A0636063C1
:102DA0002063072221462846FFF756FA06469EB9B9
:102DB0002046FFF7E8FC228BF03291B2206905F043
:102DC000B1FA0095432304F120022169606809F0FB
:102DD00005FF2046FFF73AFB607B401C6073607B79
:102DE0000A2804DA607B4FF47A71484301E042F22A
:102DF000107087B207F2F3104FF4FA7190FBF1F004
:102E00006083284604F0B0FE0649284604F0C8FE58
:102E10000449284604F0BDFE0249284604F0FCFEA1
:102E20003046F8BD84D30008F8B505462C6A052164
:102E3000204600F0B9F8032221462846FFF70CFA95
:102E4000064606BB022239212046FFF709FC298DE0
:102E50002046FFF781FC29462046FFF726FC204646
:102E6000FFF791FC228BF03291B2206905F05AFAFB
:102E70000095432304F120022169606809F0AEFE49
:102E80002046FFF7E3FA607B401C6073607B0A28F2
:102E900004DA607B4FF4FA61484301E044F62060B5
:102EA00087B207F2F3104FF4FA7190FBF1F06083F0
:102EB0003046F8BD2DE9F84305462C6A012120462D
:102EC00000F072F8032221462846FFF7C5F90646AE
:102ED000EEBB022239212046FFF7C2FB298D204696
:102EE000FFF73AFC042232212046FFF7B9FB606A63
:102EF00004F065FA804601462046FFF706FC0422EE
:102F000036212046FFF7ACFB206A04F058FA8046D1
:102F100001462046FFF7F9FB042237212046FFF740
:102F20009FFB01212046FFF7B2FB03212046FFF75C
:102F3000AEFB1C212046FFF7AAFB06212046FFF727
:102F4000A6FB29462046FFF7B0FB204600E011E033
:102F5000FFF719FC228BF03291B2206905F0E2F9FB
:102F6000009543230F4A2169606809F037FE204627
:102F7000FFF76CFA607B401C6073607B062803DA05
:102F8000617B0120884000E03C204FF47A71484387
:102F900087B207F2F310491090FBF1F060833046DE
:102FA000BDE8F88388D30008027B8A4203D001730E
:102FB000002242734283704770B50546002600BF69
:102FC00025B900BF00BF6FF00D0070BD00BF55F800
:102FD000204F687C20F008006874687CA5F120050B
:102FE00010F0200F02D16FF00D00EEE7288DB0F544
:102FF000107F02DA4FF0FF30E7E74CB93C2004F0D5
:10300000D1FA044614B94FF0FF30DEE72C6210E02D
:10301000606810B1606809F09FFD00BF206908B1C9
:1030200000BF00BF00BF00BFA06808B100BF00BF65
:1030300000BF3C212046FDF7C2F809F04FFD60605B
:10304000606810B94FF0FF30BFE76068007A40F069
:1030500020006168087244221049606809F02EFB64
:1030600043220E49606809F0BBFB2A460C496068A0
:1030700009F06EFD2846FFF707FA06462EB12846EE
:1030800000F010F84FF0FF309FE795F8310040F066
:10309000080085F83100304697E7000084D3000827
:1030A0007D2C000870B5054600BF15B900BF00BFF4
:1030B00070BD00BF2C6A95F8310020F0080085F83B
:1030C000310084B1606820B1606809F045FD0020DE
:1030D000606000BFA06808B100BF00BF00BF002152
:1030E0002046FFF761FF00BFE2E770B505462C6A96
:1030F000207B012805D0207B0A2802D0207B0528D0
:1031000002D12846FFF790FE70BD70B505462C6AC7
:10311000207B012805D0207B0A2802D0207B0528AF
:1031200002D12846FFF70EFD70BD70B505462C6A2A
:10313000207B0C2802D0207B062803D12846FFF7ED
:10314000A3F943E0207B01280DD1607B052803DC37
:103150002846FFF7AFFE39E02846FFF713FE284662
:10316000FFF792F932E0207B08280AD1607B012822
:1031700003DC2846FFF732F828E02846FEF7B7FFC1
:1031800024E0207B052803D12846FFF74DFE1DE0F3
:10319000207B04280DD1607B082803DC2846FFF73C
:1031A000D1FC13E02846FFF7EDFD2846FFF76CF948
:1031B0000CE0207B032809D1607B022803DA284633
:1031C000FFF708FD02E02846FFF75EF970BDF0B595
:1031D00087B006460D462A4601A9304602F068FA35
:1031E000012201A9304601F023FA18B14FF0FF3057
:1031F00007B0F0BD01A9304602F024FA07460122CB
:1032000001A9304601F014FA10B14FF0FF30EFE79A
:103210003A462946304601F0BAF9044603E0304602
:10322000039902F0C1F8601C0446024601A9304629
:1032300001F0D0F90028F2D00020D9E770B5064699
:103240000C4615460B222146284604F018F90020AA
:10325000E07220736073E0812082208A6082002007
:10326000A082E089E082208A208300206083E061E0
:1032700070BD2DE9F04104460E461546296802222C
:10328000206804F02FFD0746287907EB4011202223
:10329000304604F0F4F83946206804F05FFDBDE8DC
:1032A000F081F0B589B006460F46144600252AE0A5
:1032B00006EB4511202201A8FCF768FF9DF80F00DE
:1032C00000F00F000F281CD00B22394601A805F092
:1032D000AFFDB0B904B1257114B19DF80F00607154
:1032E000BDF81E00BDF8181010EB014002D10120FE
:1032F00009B0F0BDBDF81E00BDF8181000EB01408C
:10330000F6E7681CC5B2102DD2DB0020F0E770B5DF
:1033100088B006460D46002419E006EB4411202231
:103320006846FCF733FF9DF80B0000F00F000F28F4
:103330000BD09DF8000018B19DF80000E52804D1DD
:1033400005B12C71012008B070BD601CC4B2102CF6
:10335000E3DB0020F7E72DE9F04106460F4614466F
:103360001D4615B1012D0CD106E0224639463046E6
:10337000FFF797FFBDE8F08121463046FFF7C7FF12
:10338000F8E70020F6E72DE9FF5F04468A46174676
:103390001D464FF00008002629E05146204602F065
:1033A00026F800EB060B01225946206804F09AFC2F
:1033B00080462A46394640460E9BFFF7CCFF5FEA1F
:1033C00000090ED02DB15146204602F010F83044CD
:1033D00028604146206804F0C1FC484604B0BDE8BE
:1033E000F09F4146206804F0B9FC701CC6B2A07979
:1033F000B042D2DC0020F1E72DE9F04788B08046EA
:103400000D4614461E46DDF840904FF0000A059424
:10341000049400208DF8080006900390012C08D831
:103420004B4632462946404600F01BF808B0BDE83E
:10343000F0870BE0CDF8009033462A4640460499C9
:10344000FFF7A1FF070001D03846EFE752460AF127
:10345000010A02A9404601F0BDF80028EAD0002088
:10346000E4E72DE9F04704468846164699460027CA
:1034700094F83C00012806D094F83C00022802D0C1
:103480000020BDE8F087E56A1BE00122294620689C
:1034900004F028FC07464B46324641463846FFF7C3
:1034A0005AFF5FEA000A07D006B135603946206846
:1034B00004F054FC5046E4E73946206804F04EFC22
:1034C0006D1CA089C11700EBD161E26A02EB6111AA
:1034D000A942DAD83946206804F040FC0020D0E741
:1034E000FEB504460E4600270B21684603F0BEFFDA
:1034F0000B21304603F0BAFF254620782F2800D153
:103500006D1C06E00B223146684603F0B8FF781CBC
:10351000C7B26946284601F061FE0500F2D10FB13D
:103520000120FEBD0020FCE72DE9F04104460E46D7
:10353000154629680122206804F0D4FB0746287943
:1035400007EB401120223046FCF720FE3946206868
:1035500004F004FCBDE8F0812DE9F04104460D467D
:10356000164629680222206804F0BCFB0746287929
:1035700007EB4010C6613946206804F0EFFBBDE858
:10358000F0812DE9F04105460C46164621680222DD
:10359000286804F0A7FB0746300C217907EB41119E
:1035A0008882217907EB41114E833946286804F05F
:1035B000D5FBBDE8F0812DE9F04104460E461546E5
:1035C00029680222206804F08DFB0746287907EB62
:1035D00040112022304603F052FF3946206804F0A3
:1035E000BDFB0020BDE8F08170B504460D462560A6
:1035F00000202071204600F001F870BD70B505462E
:1036000005220021286802F0B2FD064600240CE0E5
:103610004FF4DF7000EB041205F1080000EB041119
:10362000304600F077FF601CC4B2042CF0DB31465A
:10363000286802F041FF70BD10B5002406480078EC
:10364000012806D10548006880470020024908701B
:1036500000E00624204610BD7205002084050020ED
:103660002DE9F04104460D4616461F464FF000086E
:10367000F4B919481949086019481A4908601A48E4
:103680001A4908601A481B49086000201A49086056
:103690001A481B4908601B481B4908601B481C4905
:1036A00008603A463146284600F0CAF8804602E0F3
:1036B0004FF0020800BF00BFB8F1000F08D109F0B9
:1036C0006BFC10B94FF0030802E0012011490870AB
:1036D0004046BDE8F081000029390008840500203B
:1036E0004D39000888050020D538000880050020E5
:1036F000993800088C0500209005002075D100083D
:103700009405002085D200089805002009D2000801
:103710009C05002072050020F8B500243D48007883
:1037200008B10620F8BD684609F024FC01286ED1D6
:103730009DF80000052869D2DFE800F00304144F6B
:10374000640063E0344A35493548364B1B68984776
:1037500004461CB9022009F027FC02E0042009F00D
:1037600023FC53E02C480088FF2832DC2A480088DC
:103770002D490860FF202D490870552048702C48BD
:10378000007888702B480078C8702A484078087103
:1037900028488078487124480268204801682348F6
:1037A000801DFCF7F3FC2421204A1F480068801D7F
:1037B00011540D211C480068C01D11540A221B49D8
:1037C0001948006808300A5417480068093016493B
:1037D000086001201849087018E0012009F05EFB1C
:1037E0000E4809F085FA08F063FF054608F05AFF15
:1037F00006462A46094801683046104B1B68984720
:10380000044603E0002009F049FB00BF00BF002090
:1038100088E70000720500207A050020740500206A
:10382000780500208C05002044000020EA0B0020D1
:1038300042000020DA0B00207C05002080050020DB
:103840002DE9F04107460C4616464FF00008FDF7FB
:103850002FF9334608222146384609F0BBFB0128E0
:1038600002D04FF003080FE0B4F5964F01D923259D
:1038700003E060000749B1FBF0F5A8B209F042FC93
:10388000012801D04FF00308FDF758F94046BDE884
:10389000F0810000A07F17002DE9F04107460C469B
:1038A00015460026FDF704F908480088042806DBC1
:1038B00000BF0648008828800548206000E00526F3
:1038C000FDF73CF93046BDE8F0810000B20500206C
:1038D00001C300202DE9F04104460D46164600279D
:1038E000102C02DD0220BDE8F081FDF7E1F80A4866
:1038F000007801280BD1094805600948068001209D
:10390000084908700121002009F0F8F900E00527B6
:10391000FDF714F93846E6E7AA050020AC050020BB
:10392000B0050020A905002010B5FDF7C1F8002062
:10393000054908700021012009F0E0F909F07AFA40
:10394000FDF7FCF810BD0000AA05002010B5FDF73A
:10395000AFF80021084609F0D1F909F029FAFDF77E
:10396000EDF810BD70B504460D462946204602F01C
:10397000F6F870BB00222146201D02F0D2FC211D6A
:1039800004F50970FFF730FE04F5097104F51B70AA
:1039900004F0BAF994F97002401C0ED10B2184F89E
:1039A00030120021C4F834122168C4F8381204F52A
:1039B000097104F51B7004F0A7F904F51B7104F5F7
:1039C0001D7001F084FE10B16FF0010070BD002089
:1039D000FCE74FF0FF30F9E72DE9FC470546894643
:1039E000164600BF1DB900BF00BFBDE8FC8700BF81
:1039F00070892A280EDA5148408C401C81B24F4809
:103A00004184C08B401C81B24C48C183304604F0D5
:103A1000E6FBEAE7776807F10E042088B0F5807FBF
:103A200008D12079062805D16079042802D1608860
:103A300008280ED04148008D401C81B23F480185C6
:103A4000C08B401C81B23D48C183304604F0C7FBA7
:103A5000CBE73A48408B401C81B238484183D4F8C8
:103A60000E000190A0690090281D01D0686810B96F
:103A70004FF0000808E000986968884201D10120F1
:103A800000E0002000F0FF08B8F1000F01D0012095
:103A900000E00220C3B204F1080201A9284600F0A8
:103AA0001FFCE088B0F5807F03D0B0F5007F37D1F0
:103AB00031E0B8F1000F2CD0022003F07AFCE08056
:103AC000D4F80E00A0616868C4F80E0000BF95F835
:103AD0002A00062801D000BF00BF00BFA068C4F8BC
:103AE0001200A089E082A0683860A089B880D9F867
:103AF0000000A060B9F80400A081D9F80000C7F860
:103B00000600B9F80400788131462846AA69904732
:103B100000E000BF0BE001A92846FEF7CFFA06E05F
:103B20000648808D401C81B20448818500BF00BFDB
:103B3000304604F054FB00BF57E70000CC9400204F
:103B400070B50546002412E004EB8400094901EB3E
:103B50008000867C4EB104EB840001EB800080681D
:103B6000A84202D1204600F0D5F8601CC4B20A2C4D
:103B7000EADB70BDE89500202DE9FC5F05460F46A5
:103B80004FF00A08C1460A260024A34600200190EF
:103B9000B246009000BF61E004EB84005C4A02EB97
:103BA0008000817C0A2E02D109B966B254E069B363
:103BB00000BF012903D0022901DA00BF00BF00BF06
:103BC0005DB104EB8402524B03EB82022868526819
:103BD000904202D160B2BDE8FC9F012928D104EBDC
:103BE00084004B4A52F8200088B104EB840002EBB9
:103BF0008000C27C009882422EDB4FFA84FA04EBEC
:103C00008400434A02EB8000C07C009024E004EB77
:103C100084003F4A02EB8000C07C58451CDB4FFA11
:103C200084F804EB840002EB800090F813B013E0FA
:103C3000022911DB04EB8400354A02EB8000C27CD0
:103C40000198824208DB4FFA84F904EB8400304A81
:103C500002EB8000C07C0190601CC4B20A2C9BDB8C
:103C600017F0020F04D10A2E05D117F0010F02D16F
:103C70004FF0FF30AFE70A2E01DAF4B226E0B9F1D7
:103C80000A0F0BDA09F0FF0400BF04EB840020499F
:103C900051F8200008B100BF00BF0EE0B8F10A0FD4
:103CA00002DA08F0FF0408E0BAF10A0F02DA0AF0BB
:103CB000FF0402E04FF0FF308DE700BF0A2C01DB6C
:103CC00000BF00BF00BF204600F024F800BF0A2C50
:103CD00001DB00BF00BF00BF00BF04EB84000C4944
:103CE00001EB8000807C08B100BF00BF00BF35B190
:103CF00004EB8401064A02EB810128684860002039
:103D000004EB8401024A02EB8101C87460B262E7ED
:103D1000E895002010B5044604EB84000C4951F8E6
:103D2000200060B104EB8401094A52F8210004F03C
:103D300056FA002004EB8401054A42F821000020D5
:103D400004EB8401024A02EB8101887410BD00007B
:103D5000E89500202DE9FC4704460F461546A94684
:103D600000BF0CB900BF00BF00BF00BF0FB900BF4C
:103D700000BF00BF00BF0DB900BF00BF00BF0E21D4
:103D8000384604F089FA40B14B484089401C4A4902
:103D900048816FF00100BDE8FC872146286802F0E9
:103DA0003FFC10B1DFF814817DE0286800F0F000DE
:103DB000E02815D101208DF8000000208DF80100C9
:103DC0005E208DF80200687800F07F008DF8030017
:103DD000A8788DF80400E8788DF80500E84661E0E1
:103DE0002868A1680840D4E901121140884210D027
:103DF000286880B2A0F57E41A9390AD014F10C00E0
:103E000004D0E06810B104F10C0902E06FF0030087
:103E1000C1E72B48007800EB80002A4901EB8000C5
:103E2000807C022818DB2649097801EB8101254AAC
:103E300002EB8101D9F80000496888420CD11E4884
:103E4000C08D401C81B21C48C1851D48027839468E
:103E5000204600F039F89EE700261BE006EB8600BE
:103E6000184901EB8000807C022811DB06EB8601FB
:103E7000144A02EB8101D9F800004968884207D151
:103E80000F490E70F2B23946204600F01DF882E765
:103E9000701C46B20A2EE1DB3A464946204600F045
:103EA00053F878E700BF434604F12B023946204619
:103EB00000F0AEF96FE70000CC9400208CD300082E
:103EC00052050020E895002070B505460E461446C0
:103ED00000BF04EB84001B4901EB8000807C0228BA
:103EE00001DA00BF00BF00BF04EB8400154901EBFD
:103EF0008000807C022817D104EB840001EB800055
:103F0000C07CE42810DB04EB84000A4602EB80004E
:103F1000011D284600F066F930B9032004EB840146
:103F2000084A02EB8101887404EB8400054901EB27
:103F3000800000F10C0305F12B023146284600F009
:103F400067F970BDE89500202DE9F05F80460F46C7
:103F5000164608F12B094FF0FF3A4146386802F047
:103F60005FFB38B9386800F0F000E02802D00FB1EC
:103F7000386818B96FF00D00BDE8F09F0121384690
:103F8000FFF7FAFD0446002C08DA2EB15748808C62
:103F9000401C81B2554881842046EDE704EB840043
:103FA000534901EB8000807C30B9012004EB84018F
:103FB0004F4A02EB8101887400BF04EB84004C4936
:103FC00001EB8000807C012808D004EB840001EB29
:103FD0008000807C022801DA00BF00BF00BF04EB34
:103FE0008400434901EB8000807C012800D03EB969
:103FF0003946404600F0F6F882460EB95046BBE717
:1040000000BF0EB900BF00BF00BF04EB84003849F9
:1040100001EB8000807C02280FDB36490C7004EB3A
:104020008400334901EB800000F10C034A4631461D
:10403000404600F0EDF8824656E004EB84002C493F
:1040400001EB8000807C01284ED14FF0000B3546FB
:1040500010E000BF68892989884203D1286808B127
:1040600000BF00BF00BF287B012802D04FF0010B2A
:1040700002E02D68002DECD100BFBBF1000F10D085
:1040800029890022032003F072FE05466DB13146F6
:10409000284603F0E5FF40B1284604F0A0F80025CB
:1040A00003E03546284604F095F9A5B104EB8400F9
:1040B0000F4951F8200030B104EB84010C4A52F84A
:1040C000210004F08CF804EB8400094941F82050E9
:1040D0004FF0000A07E00548808C401C81B203487D
:1040E00081844FF0FF3A00BF504645E7CC94002052
:1040F000E8950020520500202DE9FF4F81B00746CA
:10410000884691469A46DDF838B00020009000BFFE
:104110000FB900BF00BF00BF00222A21032003F017
:1041200026FE054655B92E48808C401C81B22C488D
:1041300081844FF0FF3005B0BDE8F08F00BF688983
:104140002A2801DA00BF00BF00BF6E6806F10E0426
:10415000119803F02EF9E08000BF97F82A00062896
:1041600001D000BF00BF00BFDAF80000A060BAF8BD
:104170000400A0810F980168C4F812108088E082C2
:10418000D9F800003060B9F80400B080D8F8000019
:10419000C6F80600B8F804007081DBF80000C4F827
:1041A0000E0010980068A0614FF4807020800820F5
:1041B000608006202071042060714FF4C160B081DE
:1041C00029463846BA69904700900548008B401C44
:1041D00003490883284604F002F800250098AAE75E
:1041E000CC9400207FB504460D4601230649201DCE
:1041F0008DE82300039304F12B03044A194620465B
:10420000FFF77AFF04B070BD92D300088CD300088A
:104210002DE9F04104460E4617469846756800BFE2
:1042200094F82A00062801D000BF00BF00BFD8F8CC
:1042300000002860B8F80400A8803868C5F80600B7
:10424000B88868810820A88131462046A269904735
:10425000BDE8F08170B500243DE004EB84001F4907
:1042600001EB8000857C25B304EB840001EB80002A
:10427000C07C401C04EB8401184A02EB8101C87425
:1042800004EB8400114601EB8000C07CF0280DDABD
:1042900004EB840001EB8000807C01280AD104EB50
:1042A000840001EB8000C07C022803DB2046FFF77E
:1042B00031FD0EE004EB8400084901EB8000807CB6
:1042C000032806D1022004EB8401044A02EB810199
:1042D0008874601CC4B20A2CBFDB70BDE895002056
:1042E0002DE9F04706460D461746984600BF96F85A
:1042F0002A00062801D000BF00BF00BF5DB12868BA
:1043000048B13146286802F08BF920B9286800F0DE
:10431000F000E02803D16FF00D00BDE8F0874146C2
:104320002846FFF729FC0446002C01DA2046F4E772
:10433000022004EB84011A4A02EB8101887404EB29
:104340008400114601EB8000866004EB840001EBE1
:1043500080003968C160B9880182002004EB8401C3
:1043600002EB8101C87404EB8400114651F820006F
:1043700098B104EB840051F82090002004EB8401F4
:1043800042F821003B4606F12B0249463046FFF732
:104390003FFF484603F023FF00BF0020BDE70000B9
:1043A000E89500202DE9F04104460E464FF00E0836
:1043B00060890E280BDC3448008D401C81B23248E5
:1043C0000185C08B401C81B22F48C18356E06568CF
:1043D000AF89287810F0010F16D02878012809D16C
:1043E000687888B9A8785E280ED1607B40F010000C
:1043F000607309E0062225492846FBF7F4FE18B948
:10440000607B40F008006073082F03D0B7F5C16FE0
:1044100024D116E096F8310010F0200F00D12DE0E5
:10442000C8F1000001B2204603F036FF20B100BF02
:1044300000BF00BF00BF21E03146204602F00EFA67
:1044400018E096F8310010F0200F00D116E0224657
:1044500006F12B013046FFF7BFFA0BE00A48008D4A
:10446000401C81B208480185C08B401C81B20648BF
:10447000C18303E000BF0020BDE8F081204603F0C7
:10448000AEFE0020F8E70000CC9400208CD300089A
:1044900070B5044600BF0CB900BF00BF00BF0820C4
:1044A00003F080F8054615B94FF0FF3070BD0AA043
:1044B0006062E561732084F8320074213320015575
:1044C000074860610748A06104F12B00286020467E
:1044D00002F0BAFE0020E9E7776A775F69700000B2
:1044E000553D00082173000870B50446204602F0CF
:1044F000F1FE064616B94FF0FF3070BD214630463A
:104500002269904705461DB1304603F068FE00263B
:104510002846F2E770B504460D461646A05D2870A1
:10452000A01940786870A0198178A970A019C17885
:10453000E970A01900792871A01940796871A01953
:104540008179A971A019C179E971A019082100F038
:104550000FF8A860A0190C2100F00AF8E86070BDFF
:104560000246505C53185B7800EB032080B2704722
:104570000246C81C105C0306881C105C03EB004359
:10458000481C105C03EB0020535C184470472DE975
:10459000F04186B007460C4615464FF0000800264D
:1045A00000208DF80000049001900290039403E035
:1045B0000298A84200D1019E424608F101086946CE
:1045C000384600F007F808B9002EF1D0304606B0A2
:1045D000BDE8F08170B506460C4615466068A842F5
:1045E00001D8A06828B900206060E068A0600020C1
:1045F00020706068A84201D1002070BD13E02078CF
:1046000048B12078401E20706068401C6060A0683F
:10461000401CA06007E02146304600F06FF910B161
:104620004FF0FF30E9E76068A842E8D10020E4E7F6
:104630002DE9FC5F04460E461746B9464FF0000AC6
:10464000002001908346F068012802D838B2BDE806
:10465000FC9F3146204600F0F5FF804645467BE052
:104660006D1C206A401CA8422BD8BBF1000F23D040
:104670004146204600F098F90090022220680099F7
:1046800003F030FB8246204600F0B7F9534602465D
:1046900041460090204600F07BFAC6F81080514653
:1046A000206803F05BFBA7EB0901606B401A6063B5
:1046B000A7EB090000B2CAE702250BF1010000F0E8
:1046C000FF0B2946204600F06FF900900122206878
:1046D000009903F007FB824652462946204600F027
:1046E000BFF8B8B94146204600F05EF900900222BA
:1046F0002068009903F0F6FA01902A4641462046C8
:10470000019B00F045FA2068019903F027FBA9F10D
:104710000109A8465146206803F020FBB9F1000FBB
:104720001AD14146204600F03FF90090022220684D
:10473000009903F0D7FA8246204600F05EF953460E
:10474000024641460090204600F022FAC6F810804A
:104750005146206803F002FBB9F1000F80D1706967
:1047600010B1706938447061002070E770B586B090
:1047700006460C460025012C02D8002006B070BD6C
:1047800000208DF80000049001900290039400BF77
:104790002A466D1C69463046FFF71CFF0028F7D0FB
:1047A000681EEBE72DE9F05F05460F464FF0000B62
:1047B0003946284600F0F8F881462889A9EB000020
:1047C000696A814202D9B9F1000F02D10020BDE827
:1047D000F09F01224946286803F084FA064695F8BE
:1047E0003C00012804D002282AD0032831D12BE034
:1047F00007EB4700C0F3480416F804A0A4F5807046
:10480000FF380DD13146286803F0A8FA012209F1DA
:104810000101286803F066FA064696F8008002E077
:10482000601C16F8008017F0010F04D108F00F008B
:104830000AEB002B03E04FEA081000EB2A1B08E00C
:10484000FCB236F814B004E007F07F0456F824B048
:1048500000BF00BF3146286803F080FA5846B6E72B
:104860002DE9F84F07460D4616460020009097F8B0
:104870003C00012804D0022831D003283AD133E08B
:1048800005EB4500C0F3480416F804A0A4F58070B9
:10489000FF3812D12946384600F086F800F1010BA6
:1048A00001225946386803F01DFA814699F80080C4
:1048B0004946386803F052FA02E0601C16F800809E
:1048C00015F0010F05D108F00F000AEB0020009051
:1048D00004E04FEA081000EB2A1000900AE0ECB266
:1048E00036F81400009005E005F07F0456F8240027
:1048F000009000BF00BF0098BDE8F88F2DE9F05F81
:1049000005460C464FF0000AA06818B94FF0FF307A
:10491000BDE8F09F2846A16800F046F880460122D5
:104920004146286803F0DEF983465A462846A168C6
:10493000FFF796FF81464946284600F073F840B1DC
:10494000A06820615946286803F008FA4FF0FF304C
:10495000DEE7C4F808906068401C6060A068461EEE
:10496000771C0AE03E465A4631462846FFF778FF54
:1049700007460AF101000FFA80FA781EB04205D10D
:104980003946284600F010F84045EBD0BAF1010056
:1049900001D5002001E0AAF10100207059462868E5
:1049A00003F0DCF90020B3E710B502460B4614898A
:1049B00092F83C00012804D002280CD003281AD118
:1049C00011E003EB4300810A506A884201D80020BD
:1049D00010BD6018FCE7190A506A884201D800200F
:1049E000F6E76018F4E7D909506A884201D8002038
:1049F000EEE76018ECE70020EAE7014691F83C009A
:104A0000012804D0022805D0032809D105E040F68A
:104A1000FF7070474FF6FF70FBE76FF07040F8E7EC
:104A20000020F6E7024692F83C00012804D0022854
:104A300009D0032816D10DE040F6F870814201D26A
:104A4000002070470EE04FF6F870814201D200203E
:104A5000F7E707E021F07040044B984201D20020B4
:104A6000EFE700BF00BF0120EBE70000F8FFFF0FFA
:104A70002DE9F05F07468846164641463846FFF75F
:104A800093FF82463889AAEB0000796A814202D9F5
:104A9000BAF1000F01D1BDE8F09F022251463868FB
:104AA00003F020F9054697F83C00012804D00228BD
:104AB00059D0032869D15FE008EB4800C0F34804EF
:104AC000A4F58070FF382ED118F0010F01D12E55BA
:104AD00007E0285D00F00F00F02101EA061108440C
:104AE000285541463846FFF75FFF00F1010B0222CF
:104AF0005946386803F0F6F8814618F0010F09D1DD
:104B000099F8000000F0F000C6F30321084489F88A
:104B1000000003E0C6F3071089F800004946386832
:104B200003F01CF91AE018F0010F0BD12E55601C90
:104B3000285C00F0F000C6F303210844C1B2601CF9
:104B400029540BE0285D00F00F00F02101EA061166
:104B500008442855C6F30710611C68542946386874
:104B600003F0FCF811E008F0FF0425F81460294672
:104B7000386803F0F3F808E008F07F0445F8246093
:104B80002946386803F0EAF800BF00BF00BF82E79B
:104B90002DE9F04781460F4616461D4699F83C0020
:104BA000012804D0022857D003285ED158E007EB33
:104BB0004700C0F34804A4F58070FF3830D117F0E7
:104BC000010F01D12E5507E0285D00F00F00F02104
:104BD00001EA06110844285539464846FFF7E4FE25
:104BE00000F1010A02225146D9F8000003F07AF8D8
:104BF000804617F0010F09D198F8000000F0F0008E
:104C0000C6F30321084488F8000003E0C6F3071048
:104C100088F800004146D9F8000003F09FF81AE038
:104C200017F0010F0BD12E55601C285C00F0F0002E
:104C3000C6F303210844C1B2601C29540BE0285D6F
:104C400000F00F00F02101EA061108442855C6F3D0
:104C50000710611C685408E0FCB225F8146004E0F9
:104C600007F07F0445F8246000BF00BFBDE8F0876F
:104C700010B5044600F01AFD98B1002060820121B1
:104C8000204600F08BFA28B1E06CE061608A208356
:104C90000020E08204F120022146A06AFEF78BFC8E
:104CA0000AE00121204600F079FA28B104F1200140
:104CB000E26CA06AFEF750FC5021204602F0D6FBC1
:104CC00000221146204600F01EFB00220121204652
:104CD00000F019FB002010BD2DE9F0418EB0044614
:104CE0000E4615461F4601A92846FEF7F9FB612F1F
:104CF0007DD0722F02D0772F7AD122E000230CAA28
:104D00002946304600F0D6FB012817D10CAA2146CF
:104D10003046FEF709FC0CAA3146204600F045FA61
:104D200001220021204600F0EEFA00220121204657
:104D300000F0E9FA00200EB0BDE8F0814FF0FF303E
:104D4000F9E76B460CAA2946304600F0B3FB012870
:104D500015D10CAA21463046FEF7E6FB0CAA3146D7
:104D6000204600F022FA01220021204600F0CBFA72
:104D700001221146204600F0C6FA0020DBE7009829
:104D800010B96FF00300D6E700230CAA294630467D
:104D900000F00FFC68B301AA04A93046FEF74EFAF2
:104DA0000CAA04A93046FEF764FA2022214604A882
:104DB00002F065FB0CAA3146204600F0F6F9A06A25
:104DC00000F071FC80464146A06A00F059FC00905A
:104DD000A06A04F12001009AFEF7D3FB2046009957
:104DE00000F0ECFC04F12C013046009A02E01BE0DC
:104DF000ADE016E000F05CFC3046FFF7FEFD8046BB
:104E0000024630460099FFF733FE0122002120467A
:104E100000F079FA01221146204600F074FA0020D1
:104E200089E76FF0020086E700230CAA2946304686
:104E300000F040FB01283BD10CAA21463046FEF78A
:104E400073FB0CAA3146204600F0AFF9A06B00BB03
:104E5000A06A00F028FC80464146A06A00F010FCE1
:104E60000090A06A04F12001009AFEF78AFB204618
:104E7000009900F0A3FC3046FFF7BFFD80460246D4
:104E800030460099FFF7F4FD0CAA3146204600F0A9
:104E90008CF92046E16C00F049FA012200212046FD
:104EA00000F031FA01221146204600F02CFA4CE0C5
:104EB00000230CAA2946304600F07BFBF0B301AA80
:104EC00004A93046FEF7BAF90CAA04A93046FEF749
:104ED000D0F92022214604A802F0D1FA0CAA3146CA
:104EE000204600F062F9A06A00F0DDFB80464146F2
:104EF000A06A00F0C5FB0090A06A04F12001009AAE
:104F0000FEF73FFB2046009900F058FC04F12C010D
:104F10003046009A00F0CCFB3046FFF76EFD80462D
:104F2000024630460099FFF7A3FD012200212046EA
:104F300000F0E9F901221146204600E002E000F00D
:104F4000E2F902E06FF00200F5E60020F3E66FF010
:104F50000300F0E62DE9FF4F85B004460E464FF002
:104F60000009079F35460021204600F017F918B9BF
:104F7000002009B0BDE8F08FE06CB04200D80027F7
:104F800007983044E16C884202D90FB1E06C871B6E
:104F90005CE0A06A80794002B5FBF0F00490690AF9
:104FA000A06A8079B1FBF0F200FB121BC5F3080088
:104FB0000390039810B9B7F5007F0DD2C5F3080030
:104FC000C0F50070B84201D3384603E0C5F30800CD
:104FD000C0F50070804601E04FF40078A06A04F14B
:104FE0002C01049AFFF7F6FA08B10020C1E7606BC4
:104FF0000290A06A029900F0FAF98246B8F5007FA3
:1050000009D1089B03EB09020AEB0B01A36A18689C
:1050100002F023FE16E00AEB0B01A26A10680122DF
:1050200002F060FE0190089A02EB0901C5F3080343
:10503000019A9818424602F022FAA16A086801997A
:1050400002F08CFE4544C144A7EB0807002FA0D115
:1050500048468EE72DE9FF4F85B004460F46DDF840
:105060001CA000253E460021204600F097F820B104
:105070000121204600F092F818B9002009B0BDE8DF
:10508000F08FE06CB84200D2E76C39462046079AB0
:1050900000F001F98146B9F1000F08D04A4604F149
:1050A0002C01A06AFFF7C4FA08B10020E6E767E028
:1050B000A06A80794002B6FBF0F00490710AA06A01
:1050C0008079B1FBF0F200FB12100390C6F30800E8
:1050D0000290029810B9BAF5007F0ED2C6F308000C
:1050E000C0F50070504501D3504603E0C6F30800F8
:1050F000C0F500701FFA80F801E04FF40078A06A54
:1051000004F12C01049AFFF765FA50B1E06C2844D1
:10511000E06404F12001E26CA06AFEF71DFA284663
:10512000ACE7606B0190A06A019900F060F98346DA
:10513000B8F5007F09D1089B5A19039B0BEB0301BB
:10514000A36A186802F09BFD16E0039A0BEB0201BC
:10515000A26A1068022202F0C5FD0090C6F308039F
:10516000009A9918089A5019424602F088F9A16AE3
:105170000868009902F0F2FD46444544AAEB080A8B
:10518000BAF1000F94D1E06CC01BA84204D2E06CCD
:10519000C11B691A0844E06428466FE7024692F88A
:1051A000440001238B401840704710B58162C369E9
:1051B000C3640023836413680362147924231C549A
:1051C000002380F82C30438B848A03EB04448463EF
:1051D0000024C4630463846B446310BD70B502464D
:1051E0000C4600260025002303E02020E054581C34
:1051F000C3B20B2BF9DB002310782E280AD12070C4
:10520000681CC5B250782E2802D16070921C26E02E
:10521000521C24E01BE010782E2803D116B9012679
:10522000082313E046B10A2B10DC107800F088F850
:10523000E054581CC3B209E0072B07DC107800F0DB
:105240007FF8E054581CC3B2681CC5B2521C1078D9
:1052500028B11078202802D010782F28DBD1002D1B
:1052600005DD107808B9104670BD501CFCE7002021
:10527000FAE72DE9F04104460D46164633462A4624
:105280002046A16CFFF766FE0746A06C3844A06478
:105290003846BDE8F0812DE9F04704460F469046B8
:1052A00007EB0800E16C884228D9206C30B9A16B6B
:1052B000A06AFFF75BFA0646266400E0266CA06A47
:1052C0008088A16A897900FB01F5E06C2844401EC2
:1052D000B0FBF5F0301A6843E16CA8EB01013944EA
:1052E000884208D207EB080006FB15002844401E40
:1052F000B0FBF5F904E04FF0000901E04FF00009C0
:105300004846BDE8F08710B53AB190F84430012422
:105310008C40234380F8443007E090F84440012358
:105320008B4024EA030380F8443010BD0246D06C61
:10533000884202D39164002070474FF0FF30FBE7B2
:105340000146202912DB03DD302901DA2D290DD198
:10535000392901DD412909DB5A2903DD612901DAF7
:105360005F2903D17A2903DD7E2901D058207047B7
:10537000612905DB7A2903DCA1F12000C0B2F6E740
:105380000846F4E72DE9F04104460D46164633463B
:105390002A462046A16CFFF75DFE0746A06C384404
:1053A000A0643846BDE8F0812DE9F04104460F467F
:1053B000002516E03946204600F019F800EB0508F4
:1053C00002224146206802F08DFC06464FF400712F
:1053D000304602F04BF83146206802F0BFFC681CF2
:1053E00085B2A079A842E5DC0020BDE8F08170B567
:1053F00002460B4692F83C00032805D11489907AA6
:10540000556A05FB00410AE01589947A566A06FB45
:1054100004559089C41700EB147405EB2411981EF1
:10542000947900FB041070BD30B583885B1E8489BD
:1054300003EB4413848893FBF4F2038A23B1038AB9
:1054400043620024846103E0836943620024048290
:10545000C38923B1C38983620024446103E04369A3
:1054600083620024C4810489837A456A03FB05436F
:105470001344846AE11A8379B1FBF3F3036230BD0C
:1054800040F6F572016A914205D2012180F83C1084
:105490000022C2610DE04FF6F572016A914205D219
:1054A000022180F83C100022C26102E0032180F852
:1054B0003C1070472DE9FF4F85B00E4617461C463D
:1054C0004FF0000AD34630782F280CD1059800F011
:1054D000B0F80546761C04B12560307838B9022052
:1054E00009B0BDE8F08F0598056B04B1256033E085
:1054F000002300933B462A4602A90598FDF77CFF4E
:105500005FEA000909D102A94046FFF767FE10B122
:105510000CB1002020600020E2E70AF1010000F059
:10552000FF0A787910F0100F09D04D46464604B1B5
:105530002560BBF1000F0FD0002020600CE04FF081
:10554000010B02A94046FFF749FE20B10CB1002033
:1055500020600020C4E7464602A93046FFF73EFE21
:105560005FEA0008C4D1BAF1000F00D1B8E778793A
:1055700010F0100F02D1BBF1000F01D10220AFE7F4
:105580000120ADE790F83C1003290BD10289837A02
:10559000816903FB0123C169891E827901FB023104
:1055A000C16205E00289837A018A03FB0121C1629D
:1055B0007047F0B585B006460C4615461F460020DC
:1055C000049004AB2A4621463046FFF773FF10B122
:1055D000002005B0F0BD01A92046FDF781FF08B904
:1055E0000020F6E7012300932B4601A93046049AD8
:1055F000FDF702FF08B10120EBE730460499FDF703
:10560000E6FD08B10020E4E7012300932B4601A941
:105610003046049AFDF7F0FE08B10120D9E70020DA
:10562000D7E710B504460021A26A206802F039FBD2
:1056300010BD014691F83C00032801D1C8697047AC
:105640000120FCE770B505460C46A06818B9E06873
:10565000A06000206060206980B909E0217860685E
:10566000084460602178A0680844A0600020207091
:1056700021462846FFF742F90028EFD0206970BD87
:1056800070B506460C4609E0002221463046FFF779
:1056900089F805460DB9204670BD641C306AA042E9
:1056A000F2D80020F8E7014602207047002070473A
:1056B000CA608A6000234B600B610B704B617047BE
:1056C00000B502461046FFF7B4FF106300BD70B589
:1056D00005460C46204600F01EF810B94FF0FF308A
:1056E00070BD2C602146284600F02EF8284600F0B8
:1056F0006FF810B96FF00100F2E72846FFF794FE4B
:105700002846FFF7BDFE2846FFF73CFF2846FFF777
:10571000D7FF0020E4E770B50446052200212046AB
:1057200002F0E0FA05464FF4FF712846FEF718FF35
:10573000A0F52A41553901D0002070BD29462046E8
:1057400002F00CFB0120F8E770B504460E46052276
:105750000021304602F0C6FA05460B212846FEF726
:10576000FFFEA080697BA1710E212846FEF7F8FE9E
:105770002081297CA17211212846FEF7F1FEA0812B
:1057800013212846FEF7ECFEE08116212846FEF79D
:10579000E7FE208220212846FEF7EAFE60612421F0
:1057A0002846FEF7E5FEA0612C212846FEF7E0FE24
:1057B000E0612946304602F0D1FA70BD0A0C8282BF
:1057C0004183704710B504462046FFF72AFF10BDFD
:1057D000014601208A88B2F5007F00D000208A7936
:1057E000012A00D100E000228B79022B01D1012394
:1057F00000E000231A438B79042B01D1012300E040
:1058000000231A438B79082B01D1012300E00023E8
:105810001A438B79102B01D1012300E000231A4396
:105820008B79202B01D1012300E000231A438B79CF
:10583000402B01D1012300E000231A4300D10020B6
:105840000A8902B900200A8A6AB10A681268083215
:105850000B6893F9043002EB0312D3680A8A93426F
:105860000ED200200CE00A68126808320B6893F927
:10587000043002EB0312D3688A69934200D20020FD
:10588000704701460120704770B505460C46224618
:105890000321284600F012F970BD00002DE9FE4FEB
:1058A000044689468248B0F86200401C81B28048B4
:1058B000A0F862106668307800074FEA9068C8F177
:1058C0000001204602F0E8FC10B92089042800D22B
:1058D000D4E0606890F800A0BAF1000F03D0BAF1EC
:1058E000080F6AD100E0C4E001277248006800F0A8
:1058F000F000E02800D100276E490868494600F012
:105900008FFE00B1002767B96948B0F87400401CE9
:1059100081B26748A0F87410204602F060FCBDE830
:10592000FE8F2089082800D2A8E0204600F09CF9CC
:1059300058B1204602F053FC5D48B0F86800401CA6
:1059400081B25B48A0F86810E9E72221204602F006
:10595000A3FC88B34146204602F09EFC20B100BF64
:1059600000BF00BF00BF95E021890022022002F0A5
:10597000FEF9074607B98DE000BF798908F10800F4
:10598000814201D200BF00BF00BF2146384602F06D
:1059900067FB20B100BF00BF00BF00BF7AE07E6898
:1059A000C8F1000001B2384602F076FC30B100BF09
:1059B00000BF00BF00BF6DE005E04AE0204602F0F6
:1059C0000EFC3C460AE06FF02101204602F064FC28
:1059D00020B100BF00BF00BF00BF5BE06568354875
:1059E0000068F060344800683061002028706888E2
:1059F0004FF6F771884203D368880930688002E067
:105A0000688808306880FF2030720020708114217F
:105A1000304600F01FF970812548B0F86000401C46
:105A20002349A1F860004146204602F035FC18B138
:105A300000BF00BF00BF0BE001220021FF238DE863
:105A400006020A461B49204601F068F8074600BFD7
:105A50000FE01748B0F87000401C81B21448A0F85D
:105A60007010B0F86600401C81B21148A0F86610B2
:105A700000BF00BF204602F0B2FB50E7204602F014
:105A8000AEFB0B48B0F86A00401C81B20848A0F891
:105A90006A1044E7204602F0A2FB0548B0F8740003
:105AA000401C81B20248A0F8741000BF37E7000024
:105AB000CC94002044050020400500202DE9FE4341
:105AC00006460F46904600222421012002F04FF99D
:105AD00005460DB9BDE8FE8300BF6889242801D2C0
